:100000000C946A000C9492000C9492000C94920050
:100010000C9492000C9492000C9492000C94920018
:100020000C9492000C9492000C9492000C94920008
:100030000C9492000C9492000C9492000C949200F8
:100040000C949E130C9492000C946C130C94461315
:100050000C9492000C9492000C9492000C949200D8
:100060000C9492000C9492007C3C3E5E2B3D3F2F02
:100070005B5D3B2C2A225C0000000000250028006C
:100080002B0000000008000201000003040700002C
:1000900000000000000000000000240027002A00EB
:1000A00000000000230026002900040404040404C6
:1000B0000404020202020202030303030303010217
:1000C00004081020408001020408102001020408E6
:1000D00010202D1411241FBECFEFD8E0DEBFCDBFFE
:1000E00011E0A0E0B1E0EEE6F8E302C005900D9269
:1000F000AA38B107D9F724E0AAE8B1E001C01D92FF
:10010000A33BB207E1F710E0CAE6D0E004C02197B4
:10011000FE010E94D41AC936D107C9F70E9496146D
:100120000C94351C0C940000CF93DF93FC0182816A
:10013000938190938A048093890484819581A68118
:10014000B78180938B0490938C04A0938D04B0931B
:100150008E0480859185A285B38580938F049093CA
:100160009004A0939104B0939204DF011C96CF01F8
:100170004996C3E9D4E02D912993A817B907D9F777
:10018000818D928D9093A1048093A00487E894E0E0
:10019000DF91CF910895AF92BF92CF92DF92EF920D
:1001A000FF920F931F93CF93DF936C017B018B0121
:1001B000040F151FEB015E01AE18BF08C017D10771
:1001C00059F06991D601ED91FC910190F081E02DFB
:1001D000C6010995892B79F7C501DF91CF911F9150
:1001E0000F91FF90EF90DF90CF90BF90AF90089568
:1001F000FC01538D448D252F30E0842F90E0821B2D
:10020000930B541710F0CF96089501970895FC01B1
:10021000918D828D981761F0A28DAE0FBF2FB11D09
:100220005D968C91928D9F5F9F73928F90E0089561
:100230008FEF9FEF0895FC01918D828D981731F01B
:10024000828DE80FF11D858D90E008958FEF9FEF6F
:100250000895FC01918D228D892F90E0805C9F4F45
:10026000821B91098F73992708958FE993E00E946B
:10027000290121E0892B09F420E0822F089580E0F4
:1002800090E0892B29F00E94350181110C94000027
:100290000895FC01A48DA80FB92FB11DA35ABF4F1B
:1002A0002C91848D90E001968F739927848FA68975
:1002B000B7892C93A089B1898C91837080648C93C9
:1002C000938D848D981306C00288F389E02D808178
:1002D0008F7D80830895EF92FF920F931F93CF93AA
:1002E000DF93EC0181E0888F9B8D8C8D98131AC071
:1002F000E889F989808185FF15C09FB7F894EE8958
:10030000FF896083E889F9898081837080648083B4
:100310009FBF81E090E0DF91CF911F910F91FF90FF
:10032000EF900895F62E0B8D10E00F5F1F4F0F73A7
:100330001127E02E8C8D8E110CC00FB607FCFACF62
:10034000E889F989808185FFF5CFCE010E944901B6
:10035000F1CFEB8DEC0FFD2FF11DE35AFF4FF08233
:100360009FB7F8940B8FEA89FB8980818062CFCF99
:10037000CF93DF93EC01888D8823B9F0AA89BB89DC
:10038000E889F9898C9185FD03C0808186FD0DC0C7
:100390000FB607FCF7CF8C9185FFF2CF808185FFE8
:1003A000EDCFCE010E944901E9CFDF91CF910895B1
:1003B000833081F028F4813099F08230A9F00895DB
:1003C0008730A9F08830C9F08430B1F48091800082
:1003D0008F7D03C0809180008F7780938000089587
:1003E00084B58F7784BD089584B58F7DFBCF8091D0
:1003F000B0008F778093B00008958091B0008F7D1A
:10040000F9CFCF93DF93282F30E0F901EE57FF4F5C
:100410008491F901E254FF4FD491F901E655FF4F61
:10042000C491CC23A1F081110E94D801EC2FF0E0FF
:10043000EE0FFF1FE056FF4FA591B491EC91ED2315
:1004400081E090E009F480E0DF91CF91089580E0B1
:1004500090E0FACF1F93CF93DF93282F30E0F9017C
:10046000EE57FF4F8491F901E254FF4FD491F90107
:10047000E655FF4FC491CC23A9F0162F81110E949D
:10048000D801EC2FF0E0EE0FFF1FE858FF4FA591C9
:10049000B4918FB7F894EC91111108C0D095DE2378
:1004A000DC938FBFDF91CF911F910895DE2BF8CFA2
:1004B000CF93DF9390E0FC01E254FF4F24918655E7
:1004C0009F4FFC0184918823C9F090E0880F991F09
:1004D000FC01EA56FF4FA591B491FC01E858FF4F8B
:1004E000C591D49161110DC09FB7F8948C9120955E
:1004F00082238C938881282328839FBFDF91CF910B
:100500000895623051F49FB7F8943C91822F809502
:1005100083238C93E8812E2BEFCF8FB7F894EC9147
:100520002E2B2C938FBFEACF3FB7F8948091960182
:1005300090919701A0919801B091990126B5A89B3F
:1005400005C02F3F19F00196A11DB11D3FBFBA2F65
:10055000A92F982F8827BC01CD01620F711D811D25
:10056000911D42E0660F771F881F991F4A95D1F7AA
:1005700008950C9494022FB7F894609192017091B1
:10058000930180919401909195012FBF08958FB7A9
:10059000F89480918B018FBF089561E0FC01848104
:1005A0000E942A0280918A01811110928A01089585
:1005B0008EBD00000DB407FEFDCF8EB508958FEF00
:1005C0000C94D8020F931F93CF93DF93EC010E94FA
:1005D000BB028B010E94DF028F3F69F00E94BB02C9
:1005E000601B710B6C177D07A8F380E0DF91CF9142
:1005F0001F910F91089581E0F9CF8CBD9DBD0895A5
:10060000CF93DF93EC0180918A01811109C081E0D1
:1006100080938A0180913C0490913D040E94FD02E8
:1006200060E08C81DF91CF910C942A028F929F928F
:10063000AF92BF92FF920F931F93CF93DF93EC0182
:10064000F62E49015A018E81882389F08F81988581
:100650009C012F5F3F4F38872F838230924018F4E0
:100660000E94DF02F3CFCE010E94CD021E82CE0196
:100670000E9400038CE291E00E94E2028F2D8064D0
:100680000E94D80208E110E0D501C401002E04C088
:10069000B695A795979587950A94D2F70E94D802A8
:1006A00008501109083F8FEF180771F785E9FF20FF
:1006B00021F028E087E8F2128FEF0E94D80210E0C4
:1006C0000E94DF028A8787FF04C01F3F11F01F5F6F
:1006D000F7CFDF91CF911F910F91FF90BF90AF9017
:1006E0009F908F900895AF92BF92CF92DF92EF923A
:1006F000FF920F931F93CF93DF93EC016901C80121
:10070000820F931F8130924050F58E81882379F0BB
:1007100088819981AA81BB8184179507A607B707AD
:1007200031F48F819885C816D90608F042C04883F5
:1007300059836A837B838B85833039F089E0440F4A
:10074000551F661F771F8A95D1F79A01AB0161E1AA
:10075000CE010E941603882389F083E08D83CE01A9
:100760000E94CD0280E0DF91CF911F910F91FF9009
:10077000EF90DF90CF90BF90AF9008950E94BB02A2
:100780005B010E94DF028A878F3F69F40E94BB02EF
:100790006A197B096D327140A0F38FE08D83CE0121
:1007A0000E94CD02DCCF8E3F89F418861F8281E043
:1007B0008E838F8198858C159D0550F40E94DF02F1
:1007C0008F819885019698878F83F3CF8DE0E6CF50
:1007D0006701E00EF11E0E94DF02F60181936F01B6
:1007E000EE15FF05C1F78F819885080F191F18872F
:1007F0000F838985882319F001151240A0F08E819E
:10080000882389F08F8198859C012F5F3F4F38871F
:100810002F838230924018F40E94DF02F3CFCE0182
:100820000E94CD021E8281E09ECFCF92DF92EF9296
:10083000FF920F93CF93DF93EC01690182E14115A1
:1008400051056105710599F08B85833039F089E098
:10085000440F551F661F771F8A95D1F79A01AB0188
:1008600068E1CE010E941603882319F084E08D838D
:100870002DC08EEF0E94D80276018EEFD81AF701B4
:1008800081917F010E94D802EC14FD04C1F78FEF23
:100890000E94D8028FEF0E94D8020E94DF028A874E
:1008A0008F71853071F4011116C0CE010E94CD0206
:1008B00081E0DF91CF910F91FF90EF90DF90CF908B
:1008C000089581E18D83CE010E94CD02CE010E9468
:1008D000CD0280E0EECF88E592E00E94E202811135
:1008E00002C085E1C4CF20E030E0A9016DE0CE0177
:1008F0000E941603882311F084E1B9CF0E94DF0221
:100900008111FACFD2CF0F9340918D0150918E017A
:1009100060918F017091900141155105610571053C
:1009200099F0082F2DE931E080919D0390919E036D
:100930000E941504882349F010928D0110928E01B7
:1009400010928F011092900181E00F9108950F9302
:10095000CF93C82F80918C01811105C0C1E08C2FED
:10096000CF910F9108954091000150910101609144
:100970000201709103010C2F2DE931E080919D035C
:1009800090919E030E941504811102C0C0E0E7CF40
:10099000CC2321F381E00E9483048823B9F31092D1
:1009A0008C01DDCF8F929F92AF92BF92EF92FF9218
:1009B0000F931F93CF934B015C01C42F80910001D3
:1009C00090910101A0910201B09103018815990550
:1009D000AA05BB0551F181E00E94A70481110BC05B
:1009E00080E0CF911F910F91FF90EF90BF90AF905B
:1009F0009F908F9008958DE9E82E81E0F82E00E019
:100A000012E030E020E0B501A40180919D039091B7
:100A10009E030E947303882319F380920001909231
:100A20000101A0920201B092030140918C014C2B74
:100A300040938C0181E0D5CF8F929F92AF92BF926D
:100A4000CF92DF92EF92FF92CF932EE334E0309378
:100A50009E0320939D03882309F46DC040E060E06D
:100A600070E0CB010E94D20481110BC080E0CF91D5
:100A7000FF90EF90DF90CF90BF90AF909F908F90BE
:100A8000089580915B038F7789F780916703909138
:100A90006803A0916903B0916A0384369105A105AA
:100AA000B10520F3C0906303D0906403E090650328
:100AB000F0906603C114D104E104F104B9F240E0FE
:100AC000C701B6010E94D204882381F28091A80157
:100AD0009091A9018115924049F6A091AD01AA23F8
:100AE00029F26091AB017091AC016115710509F4B7
:100AF000BDCF2091AA01222309F4B8CFA0935C04B2
:100B000020934E0490E080E030E0E1E0F0E0C82F78
:100B1000AF01082E02C0440F551F0A94E2F72417B4
:100B2000350769F041E0480F01968930910579F762
:100B3000409357049BCFC12CD12C7601C0CF80931A
:100B400057042091B3013091B40150E040E02115E9
:100B5000310541F42091C1013091C2014091C3019E
:100B60005091C40120934F0430935004409351049A
:100B70005093520446015701860E971EA11CB11CCA
:100B800080925D0490925E04A0925F04B092600433
:100B9000E091AE01F091AF01F0936304E093620441
:100BA000B0E00E94C91ADC01CB01880D991DAA1D75
:100BB000BB1D8093640490936504A0936604B09376
:100BC000670425E0EE0FFF1F2A95E1F7E150FE4F85
:100BD000EF2FFF27E6958E0F9F1FA11DB11D80935C
:100BE000580490935904A0935A04B0935B048090E6
:100BF000B0019090B101B12CA12C8114910441F469
:100C00008090BD019090BE01A090BF01B090C00146
:100C1000C81AD90AEA0AFB0AC80CD91CEA1CFB1C30
:100C200004C0F694E794D794C794CA95D2F7C092BB
:100C30005304D0925404E0925504F092560485EF88
:100C4000C8168FE0D806E104F10428F48CE0809304
:100C5000610481E00CCF80E125EFC2162FEFD206B0
:100C6000E104F104A0F38091C9019091CA01A0911F
:100C7000CB01B091CC018093640490936504A09360
:100C80006604B093670480E2E2CF4F925F926F9266
:100C90007F928F929F92AF92BF92CF92DF92EF920C
:100CA000FF920F931F93CF93DF93EC0142305105D6
:100CB0006105710590F480E0DF91CF911F910F9154
:100CC000FF90EF90DF90CF90BF90AF909F908F906C
:100CD0007F906F905F904F90089589859A85AB853E
:100CE000BC850196A11DB11D84179507A607B707FE
:100CF00010F3CB88DC88ED88FE888F89803109F07D
:100D000042C0BB27A72F962F852F480159012A01E2
:100D10003B01C80ED91EEA1EFB1E80910001909176
:100D20000101A0910201B0910301C816D906EA069B
:100D3000FB0699F58F898031C1F5B301A2015527D2
:100D400066277727440F551F43565E4FFA0191825D
:100D5000808280918C01816080938C018A898230AD
:100D600080F08D819E81AF81B8858C0D9D1DAE1D5B
:100D7000BF1D80938D0190938E01A0938F01B0933E
:100D8000900181E099CFDB01CA01E7E0B695A79514
:100D900097958795EA95D1F7B8CF40E0C701B6019E
:100DA0000E94D2048111C6CF86CFB301A2014F7732
:100DB000552766277727440F551F440F551F435665
:100DC0005E4FFA0180829182A282B382C2CF8F925B
:100DD0009F92AF92BF92CF92DF92EF92FF920F93CA
:100DE0001F93CF93DF93FC0181859285A385B48502
:100DF0000196A11DB11D84179507A607B70770F4CA
:100E000080E0DF91CF911F910F91FF90EF90DF90E5
:100E1000CF90BF90AF909F908F90089583889488D3
:100E2000A588B6888789803189F5BB27A72F962F9B
:100E3000852FE9016A017B018F01BC01CD01680D9D
:100E4000791D8A1D9B1D8090000190900101A0904A
:100E50000201B090030186169706A806B90601F5AF
:100E6000F8018789803111F5DD24EE24FF24F60195
:100E7000EE0FFF1FE356FE4F80819181B0E0A0E0AE
:100E800088839983AA83BB8381E0BBCFDB01CA013E
:100E9000C7E0B695A79597958795CA95D1F7C9CF1D
:100EA00040E00E94D2048111DBCFAACFE894C7F8BA
:100EB000DD24EE24FF24F601EE0FFF1FEE0FFF1FCF
:100EC000E356FE4F80819181A281B381BF70D8CF5C
:100ED0004F925F926F927F92AF92BF92CF92DF92CA
:100EE000EF92FF920F931F93CF93DF9300D000D028
:100EF000CDB7DEB78C0149835A836B837C8359015C
:100F0000C12CD12C7601412C82E0582E612C712C01
:100F100049815A816B817C819E012F5F3F4FC801BF
:100F20000E94E706882339F1F8018585A301920123
:100F300004C0220F331F441F551F8A95D2F7DA01D0
:100F4000C901C80ED91EEA1EFB1E49815A816B8158
:100F50007C818789803111F188EF9FEFAFEFBFE08F
:100F6000481759076A077B0798F2F501C082D182BA
:100F7000E282F38281E00F900F900F900F90DF914B
:100F8000CF911F910F91FF90EF90DF90CF90BF9086
:100F9000AF907F906F905F904F90089588EF9FEF94
:100FA000A0E0B0E0DDCFCF93DF93FC0125812223C9
:100FB00021F080E0DF91CF910895EC0180916104F0
:100FC000803159F582E08583178A108E118E128E3A
:100FD0008091620490916304B0E0A0E025E0880F66
:100FE000991FAA1FBB1F2A95D1F7838B948BA58BC2
:100FF000B68B8AE494E09C8F8B8F81E08C831E8279
:101000001F82188619861A861B861C861D861E86D8
:101010001F86188A198A1A8ACDCF803251F683E04A
:1010200085834091640450916504609166047091D9
:101030006704478B508F618F728F9F012D5E3F4FEA
:101040008AE494E00E9468078111D3CFB2CF8F92D7
:101050009F92AF92BF92CF92DF92EF92FF920F9347
:101060001F93CF93DF93EC018D8181110EC080E03F
:10107000DF91CF911F910F91FF90EF90DF90CF9074
:10108000BF90AF909F908F9008950B891C892D89F8
:101090003E89041715072607370748F34A015B0105
:1010A000823031F48A869B86AC86BD8681E0E0CFB3
:1010B00081149104A104B10449F41E821F82188690
:1010C00019861A861B861C861D86F0CF0A851B850D
:1010D0002C853D85EB8DFC8D858590E00996B901C9
:1010E000A8014150510961097109082E04C0769583
:1010F0006795579547950A94D2F775016401E1E029
:10110000CE1AD108E108F10804C0F694E794D79408
:10111000C7948A95D2F7C416D506E606F70620F0DE
:10112000012B022B032B11F58F89988DA98DBA8D78
:101130008E839F83A887B9878E010A5F1F4FC114D2
:10114000D104E104F10409F4ADCF4E815F816885DB
:10115000798598018B8D9C8D0E94E70691E0C91AD4
:10116000D108E108F1088111EACF81CFC41AD50A6C
:10117000E60AF70AE1CF3F924F925F926F927F9219
:101180008F929F92AF92BF92CF92DF92EF92FF9297
:101190000F931F93CF93DF93CDB7DEB72C970FB686
:1011A000F894DEBF0FBECDBF5C01DC015B968D9075
:1011B0009C905C9716964D905D906D907C901997E1
:1011C000411451046104710409F468C0BFEF4B1A63
:1011D0005B0A6B0A7B0A312CF40181859285A38519
:1011E000B4859C01AD012F5F3F4F4F4F5F4F298763
:1011F0003A874B875C87730162011D821E821F82C2
:101200001886F40181859285A385B4852D813E8160
:101210004F815885281739074A075B0708F056C0E1
:1012200089859A85AB85BC858C159D05AE05BF0566
:1012300050F482E0C82ED12CE12CF12C92E0492E02
:10124000512C612C712C9E012F5F3F4FB701A601DD
:10125000C4010E94E7068823C9F189819A81AB8184
:10126000BC81892B8A2B8B2B09F1260137019FEF3B
:10127000491A590A690A790A2D813E814F81588598
:101280002F5F3F4F4F4F5F4F2D833E834F835887D4
:101290003FEFC31AD30AE30AF30AB3CFF401408045
:1012A0005180628073803324339496CFC414D50464
:1012B000E604F70409F70FEF1FEF2FEF3FE0B70148
:1012C000A601C4010E944506811119C080E02C9638
:1012D0000FB6F894DEBF0FBECDBFDF91CF911F9147
:1012E0000F91FF90EF90DF90CF90BF90AF909F90C5
:1012F0008F907F906F905F904F903F900895D501B1
:1013000016964D915D916D917C91199741155105FE
:101310006105710539F097018601C4010E944506F7
:101320008823A1F2D5011696CD92DD92ED92FC9222
:101330001997332051F0D701C6010196A11DB11DA7
:10134000F40180839183A283B383F5018789908D13
:10135000A18DB28D892B8A2B8B2B39F48481C78A7E
:10136000D08EE18EF28E80688483F5018481806264
:10137000848381E0ACCF1F93CF93DF93FC01258161
:101380002223D1F1162FEC01848187FF2AC06685C4
:1013900077858089918941E00E94D204882361F198
:1013A000EA8980E2E89FF0011124E356FE4F30976E
:1013B00019F18D81823040F48B899C89AD89BE8979
:1013C000848F958FA68FB78F8F89988D938F828FFB
:1013D0008F89988DA98DBA8DB58BA48B8C818F77D1
:1013E0008C83111103C08C818F7E8C83812FDF91C0
:1013F000CF911F910C94A70480E0DF91CF911F91B2
:101400000895FF920F931F93CF93DF93EC018D818B
:10141000813041F090E080E0DF91CF911F910F91FA
:10142000FF9008958C8181FFF5CF82FD1BC0009154
:101430009D0310919E03C8010E9400030E94DF02D9
:10144000F82EC8010E94CD028FEFF812E3CF8C81F5
:1014500085FF1BC060E0CE010E94BB098C818F7D9F
:101460008C83D8CF4B895C896D897E898A859B85E1
:10147000AC85BD8584179507A607B707C1F2CE01D5
:101480000E9427088111D3CFC5CF40918D01509183
:101490008E0160918F0170919001452B462B472B57
:1014A00021F080E00E948304B5CF80618C832A857F
:1014B0003B85317080E092E0821B930BADCFCF93E0
:1014C000DF93EC0161E00E94BB09882311F01D82CB
:1014D00081E0DF91CF9108952F923F924F925F92DA
:1014E0006F927F928F929F92AF92BF92CF92DF9234
:1014F000EF92FF920F931F93CF93DF9300D000D012
:101500001F92CDB7DEB77C015B01342E5D83DC0119
:1015100015968C911597813009F0CEC014962C90B9
:1015200021FECAC022FCB4C0C32CDD8022947FE01F
:1015300027222094B22DB1702B2ED7011A964D91EF
:101540005D916D917C911D97C114D10409F428C15E
:101550005B968D919C915C97FC0174807A948A01D2
:101560009B0169E036952795179507956A95D1F700
:1015700070228A011170711020C001151105E9F463
:1015800016964D915D916D917C911997411551057C
:101590006105710509F099C057968D919D910D9047
:1015A000BC91A02D0097A105B10509F0B0C0C701FD
:1015B0000E94BB08882309F47FC080E092E0801B72
:1015C000910B46018C159D0508F44C01D7015B96E3
:1015D0004D915C915C9716968D919D910D90BC916B
:1015E000A02D0297A109B109FA01258504C0880F31
:1015F000991FAA1FBB1F2A95D2F746855785608978
:101600007189840F951FA61FB71F9C01AD01270D7F
:10161000311D411D511D29013A01811432E093060B
:1016200009F07BC08091000190910101A09102011D
:10163000B091030184159505A605B70559F48FEF00
:101640009FEFDC018093000190930101A0930201C0
:10165000B0930301022D9501B301A20180919D0376
:1016600090919E030E941504882331F19EEFB91AD0
:10167000C818D908F70182859385A485B585880D9A
:10168000991DA11DB11D82879387A487B58755CF6A
:10169000F701438954896589768982859385A48574
:1016A000B585481759076A077B0709F43DCFC7017D
:1016B0000E942708811138CF81E090E0D70113966E
:1016C0009C938E93129780E007C09E012F5F3F4F3F
:1016D0000E94E706811102C090E079C089819A8159
:1016E000AB81BC81F701238D348DF901278948EF47
:1016F0005FEF60E070E0203121F048EF5FEF6FEFC7
:101700007FE084179507A607B70708F050CFF701C9
:1017100086839783A087B18750CF0115110599F56E
:10172000D7011A964D915D916D917C911D975396BD
:101730008D919D910D90BC91A02D481759076A0776
:101740007B0708F181E00E94A704882309F4B4CF45
:1017500040920001509201016092020170920301D7
:1017600080918C01816080938C01C80183569E4FCB
:10177000D5019C01280D391DFC012E173F0759F09A
:101780004D914193FACF41E0C301B2010E94D204CE
:101790008111EBCF91CF281B390BA20EB31E68CF5E
:1017A000F70183899489A589B68984179507A607C7
:1017B000B70738F48481438B548B658B768B8068B4
:1017C0008483F701848183FD1AC0832D9D810F904E
:1017D0000F900F900F900F90DF91CF911F910F916D
:1017E000FF90EF90DF90CF90BF90AF909F908F9041
:1017F0007F906F905F904F903F902F90089561E0A1
:10180000C7010E94BB09882309F456CFDECFCF93CE
:10181000DF931F92CDB7DEB7698341E050E0BE0190
:101820006F5F7F4F0E946C0A0F90DF91CF910895F8
:10183000FC01DB0112968D919C9113979383828317
:101840008CE291E09183808314968C911497848329
:1018500015968C911597858316964D915D916D9196
:101860007C91199746835783608771871A964D91AB
:101870005D916D917C911D97428753876487758731
:101880001E964D915D916D917C915197468757873A
:10189000608B718B52968C915297828B53964D919F
:1018A0005D916D917C915697438B548B658B768BB4
:1018B00057964D915D916D917C915A97478B508FC2
:1018C000618F728F5B968D919C91948F838F089519
:1018D0000895FC01818D928D009719F061E00C94C0
:1018E000BB090895DC015996ED91FC913097B9F050
:1018F00083899489A589B6894285538564857585D0
:10190000841B950BA60BB70B811520E89207A10548
:10191000B10538F08FEF9FE7A0E0B0E0089590E0C8
:1019200080E00895DC0159968D919C91009739F0E3
:10193000DC01ED91FC910480F581E02D099490E0AB
:1019400080E00895CF93DF93EC01E98DFA8D309715
:1019500049F481E090E09B838A8390E080E0DF910E
:10196000CF91089513821282898D9A8D0E946C0AFC
:10197000E98DFA8D22813381232B59F7F0CFCF9354
:10198000DF931F92CDB7DEB76983DC01ED91FC9147
:101990000280F381E02D41E050E0BE016F5F7F4F98
:1019A00009950F90DF91CF9108952F923F924F921A
:1019B0005F926F927F928F929F92AF92BF92CF92DF
:1019C000DF92EF92FF920F931F93CF93DF9300D09C
:1019D0001F92CDB7DEB7FC018581811118C08FEF52
:1019E0009FEF0F900F900F90DF91CF911F910F916C
:1019F000FF90EF90DF90CF90BF90AF909F908F902F
:101A00007F906F905F904F903F902F9008958481CA
:101A100080FFE5CF438954896589768982859385DE
:101A2000A485B585312C212C481759076A077B07F7
:101A300019F022242394312C6F012101CE0101964B
:101A40003C01DF011696BB83AA834114510409F4BB
:101A5000C5C0F60142855385648575854A01F1E06C
:101A60009F22D6015B968D919C915C978A019B0188
:101A7000E9E03695279517950795EA95D1F71596DC
:101A8000EC91E230E9F5FC01628D738D848D958DCA
:101A9000600F711F821F931FA12C22E0B22EA81885
:101AA000B9084A145B0408F45201F601248126FDAA
:101AB00004C0A114F2E0BF0671F40091000110917E
:101AC0000101209102013091030106171707280731
:101AD000390709F05EC040E00E94D204882309F46F
:101AE0007ECFC40183569E4FD3019C012A0D3B1D1E
:101AF000FC012E173F0709F46CC041914D93F9CFBB
:101B0000DC011496BC90BA94B0228114910479F44B
:101B1000B1100DC0452B462B472B69F5F60187897F
:101B2000908DA18DB28D86839783A087B187D601D2
:101B30005B96ED91FC915C9716966D917D918D91E0
:101B40009C9119976250710981099109258504C0FA
:101B5000660F771F881F991F2A95D2F7068517856C
:101B600020893189600F711F821F931F6B0D711DBA
:101B7000811D911D91CFD60116964D915D916D916C
:101B80007C9119972A813B810E94E7068111CFCF72
:101B900026CF730185019401AB01BC0180919D03A7
:101BA00090919E030E947303882309F418CF6A0C56
:101BB0007B1CF60182859385A485B5858A0D9B1DC6
:101BC000A11DB11D82879387A487B5874A185B083A
:101BD0003CCF281B390B620E731EEBCF2A942328AF
:101BE00009F0FDCE898190E0FCCEFC01818D928DC3
:101BF000009711F00C94D50C8FEF9FEF08950F9381
:101C00001F93CF93DF93EC01898D9A8D10E000E054
:101C1000009799F00E94D50C8C010F3F100769F0D6
:101C2000898D9A8DFC014285538564857585415067
:101C30005109610971090E942708C801DF91CF91FC
:101C40001F910F9108950895FF920F931F93CF93C3
:101C5000DF93F82E062FC7E0D0E010E061E0802F80
:101C60000E942A028F2D0E9401020C2E01C0880FB3
:101C70000A94EAF7182B60E0802F0E942A0221972D
:101C800068F7812FDF91CF911F910F91FF900895F9
:101C9000EF92FF920F931F93CF93DF938091A50450
:101CA0000E940102892B19F00E94B902F7CFDFB719
:101CB000F8946091A4048091A5040E94240E082F3A
:101CC0006091A4048091A5040E94240EC82F609105
:101CD000A4048091A5040E94240E182FF12CE12C5D
:101CE0008091A6048E151F0479F070F061E0809158
:101CF000A4040E942A0260E08091A4040E942A02A7
:101D00008FEFE81AF80AECCFDFBF6C2F70E090E09D
:101D100080E0982F872F762F6627802B612B000F6E
:101D2000000B10E030E020E0302F222711270027A1
:101D3000602B712B822B932BDF91CF911F910F91F1
:101D4000FF90EF900895CF92DF92EF92FF921F9352
:101D5000CF93DF93EC0180E2689FF0011124E356FA
:101D6000FE4F9385917161F0842F827449F080E079
:101D7000DF91CF911F91FF90EF90DF90CF9008956A
:101D8000142F6A8B8091000190910101A0910201B2
:101D9000B09103018E879F87A88BB98BC488D588A3
:101DA000F12CE12C7601DD24CC24CF8AD88EE98E6B
:101DB000FA8E828D938DB0E0A0E0AC01BD014C297C
:101DC0005D296E297F294F8B588F698F7A8F838584
:101DD0008871B1F4848D958DA68DB78D8B8B9C8B7E
:101DE000AD8BBE8B81E08D831F701C831E821F8292
:101DF000188619861A861B861C861D8681E0B8CF38
:101E0000803109F0B4CF9E012D5E3F4F8B8D9C8DAC
:101E10000E946807882309F4AACF84E0E4CF0C94D9
:101E2000851BFB0101900020E9F73197AF01461BAC
:101E3000570BDC01ED91FC910280F381E02D0994B8
:101E40008F929F92AF92BF92EF92FF920F931F9348
:101E5000CF93DF93CDB7DEB7A1970FB6F894DEBF6F
:101E60000FBECDBF7C01FA01CB0119A2223008F4CC
:101E70002AE08E010F5D1F4F822E912CB12CA12CD8
:101E8000BF01A50194010E94881AF901CA016A30B4
:101E90000CF5605DD8016E938D01232B242B252B2F
:101EA00079F790E080E0109721F0BD01C7010E9412
:101EB000110FA1960FB6F894DEBF0FBECDBFDF9114
:101EC000CF911F910F91FF90EF90BF90AF909F9097
:101ED0008F900895695CDECFCF93DF93BC018FE9CB
:101EE00093E00E94110FEC016EE471E08FE993E042
:101EF0000E94110F8C0F9D1FDF91CF9108952F929B
:101F00003F924F925F926F927F928F929F92AF9289
:101F1000BF92CF92DF92EF92FF921F93CF93DF9306
:101F2000EC016A017B01722EAB019601CB01B60177
:101F30000E94831A61E571E0811126C046015701B4
:101F4000E894B7F82FEF3FEF4FE75FE7C501B40123
:101F50000E94831A81110CC02FEF3FEF4FE75FE71C
:101F6000C501B4010E94B21865E571E0181664F06D
:101F70002FEF3FEF4FE75FE4C701B6010E94111A50
:101F80001816B4F469E571E0CE01DF91CF911F918D
:101F9000FF90EF90DF90CF90BF90AF909F908F9089
:101FA0007F906F905F904F903F902F900C94110F07
:101FB0002FEF3FEF4FE75FECC701B6010E94B21869
:101FC00087FDE0CF20E030E0A901C701B6010E9403
:101FD000B218312C212C87FF0DC0E881F9810190C6
:101FE000F081E02D6DE2CE0109951C01F7FAF09425
:101FF000F7F8F09410E060E070E080E09FE3711685
:1020000041F020E030E040E251E40E94B7181F5F49
:10201000F6CFA70196010E9446182B013C010E94B1
:1020200030194B015C012AE0BC01A401CE010E94E1
:10203000200F7C01E20CF31C1123E1F1C501B40176
:102040000E945F199B01AC01C301B2010E944518B7
:102050004B015C01E881F9810190F081E02D6EE295
:10206000CE010995E80EF91E115020F120E030E074
:1020700040E251E4C501B4010E94161A2B013C0153
:102080000E9430194B01B12CA12C2AE0B501A4010A
:10209000CE010E94200FE80EF91EC501B4010E9476
:1020A0005F199B01AC01C301B2010E9445184B01AD
:1020B0005C01DACFC701DF91CF911F91FF90EF90C4
:1020C000DF90CF90BF90AF909F908F907F906F9058
:1020D0005F904F903F902F9008953F924F925F9264
:1020E0006F927F928F929F92AF92BF92CF92DF9228
:1020F000EF92FF920F931F93CF93DF93CDB7DEB78D
:102100002B970FB6F894DEBF0FBECDBF7C01FE014A
:102110003196CE010C966F0130E23193E817F90742
:10212000E1F7DA0130E087E09D91B92E992309F4B7
:102130003CC09E32F1F48A30C9F480E02B960FB691
:10214000F894DEBF0FBECDBFDF91CF911F910F91ED
:10215000FF90EF90DF90CF90BF90AF909F908F90C7
:102160007F906F905F904F903F90089538E08AE0A5
:10217000DBCFE8E6F0E04491442321F0319694135C
:10218000FACFDBCF8317C8F24FED490F4E35A8F6D3
:102190004FE9490F4A3118F440EEB42EB90EF6015A
:1021A000E30FF11DB0823F5FBFCF8981803229F2FA
:1021B000322E8B01DB015B968D919C915C97F70130
:1021C000948F838F16961D921D921D921C921997C3
:1021D000FB011286138614861586F8018285938585
:1021E000A485B585438954896589768984179507BF
:1021F000A607B70708F04DC025E0B695A7959795B7
:1022000087952A95D1F7F82FFF70AF2ED801159634
:102210008C91823008F491CFC8010E94D50C97FDB3
:102220008CCFF80182859385A485B5854F96A11D35
:10223000B11D82879387A487B587F0E2AF9EB00176
:10224000112463567E4F6115710509F476CFDB01C9
:102250008C91882341F0853E09F062C0BB2029F0B3
:10226000BB24B394BACFB1100EC0F701A28A8091FB
:10227000000190910101A0910201B09103018687B4
:102280009787A08BB18BDB018C918111E9CFBB24A7
:10229000B394832D8271823109F04FCFBB2009F4B2
:1022A0004DC0F701668577858089918941E00E945C
:1022B000D204882309F441CFD70152968C91B0E221
:1022C0008B9FC001112483569E4F009709F435CF90
:1022D000FC013A9626E1DF011D922A95E9F72BE0F1
:1022E000F601DC0101900D922A95E1F721E238E236
:1022F000FC01318B208B40E058E057874687338BB9
:10230000228B318F208F578B468B81E00E94A70450
:10231000882309F412CF432DD70152966C910AC03D
:102320004BE050E0C6010E940E1C892B09F055CFEE
:10233000432D6A2DC7010E94A30E00CFF8018581AD
:10234000823009F4FACEC8010E94BB08882309F440
:10235000F4CED8015B96ED91FC915C9716968D902A
:102360009D90AD90BC901997B2E08B1A9108A1088E
:10237000B108858504C0880C991CAA1CBB1C8A95D1
:10238000D2F786859785A089B189880E991EAA1EE5
:10239000BB1E848124013501480E511C611C711C37
:1023A00084149504A604B70409F1E1E04E1A51081B
:1023B0006108710881E00E94A704882309F4BDCE5A
:1023C000EDE9F1E011928DE993E08E179F07D1F7C7
:1023D000409200015092010160920201709203014B
:1023E00080918C01816080938C01DACFD8015B965B
:1023F000ED91FC91258580E092E0A0E0B0E004C082
:10240000880F991FAA1FBB1F2A95D2F7F80143898D
:10241000548965897689840F951FA61FB71F838B02
:10242000948BA58BB68BD70152961C928DE991E0C7
:102430004FCFEF92FF920F931F93CF93DF93EC0157
:102440007B018A011B821A8288EE93E0A0E0B0E053
:102450008C839D83AE83BF8388E391E099838883D7
:102460008DE190E00E94E91A9A8F898F009779F0A8
:102470002DE1F701DC0101900D922A95E1F74CE086
:1024800050E0B801CE010C960E94261C188EDF91F8
:10249000CF911F910F91FF90EF9008952F923F924F
:1024A0004F925F926F927F928F929F92AF92BF9264
:1024B000CF92DF92EF92FF920F931F93CF93DF9310
:1024C000CDB7DEB7C456D1090FB6F894DEBF0FBE44
:1024D000CDBF5C0119A218A28CE291E09F8F8E8F74
:1024E0001BA21C821B829A8389831E824E018EE16D
:1024F000880E911CC4010E94D3078E010F5F1F4FED
:10250000240184E0C82E81E0D82E18016FE270E02B
:10251000C6010E941B1C009709F45AC0F6012081D5
:102520002F3271F4FFEFCF1ADF0A902F812F820133
:10253000492E582E942D852D2801092F182FE6CFCE
:102540008C198D3008F08CE0E82EF12CA701B60133
:10255000CE01885A9F4F0E94261CE8E5F0E0EC0F60
:10256000FD1FEE0DFF1D1082C8010E945F0AF801D9
:1025700085818823E9F01EAE1DAE8CE291E09CAF10
:102580008BAF21961FAE219783010C5F1E4FF80180
:102590008081811127C0BE01655C7F4FC1010E940F
:1025A000180C4DE551E0B101C5010E94191238C067
:1025B00021E0AE01485A5F4FB201C8010E946D1080
:1025C0008823C9F2CE0CDF1CC2010E945F0AB2CF81
:1025D000C601845091403C01B201CE01CB960E94CD
:1025E000180CD2CF19A218A28CE291E09F8F8E8F87
:1025F0001BA221968FAD219781112DC0F501138269
:10260000128288EE93E0A0E0B0E084839583A683F5
:10261000B78388E391E091838083128E118E1486B4
:10262000C501CC59DF4F0FB6F894DEBF0FBECDBF4A
:10263000DF91CF911F910F91FF90EF90DF90CF909E
:10264000BF90AF909F908F907F906F905F904F90D2
:102650003F902F90089527E1A801BE01655C7F4F50
:10266000C4010E946D10882349F2CE01CB960E94CE
:102670005F0A49A95AA96BA97CA9C4010E9427082D
:10268000B401C1010E94180CA8018DCF1F920F92B6
:102690000FB60F9211242F933F934F935F936F9335
:1026A0007F938F939F93AF93BF93EF93FF938FE9A4
:1026B00093E00E944901FF91EF91BF91AF919F91EB
:1026C0008F917F916F915F914F913F912F910F90DB
:1026D0000FBE0F901F9018951F920F920FB60F927A
:1026E00011242F938F939F93EF93FF93E091AF0368
:1026F000F091B0038081E091B503F091B60382FDC3
:102700001BC090818091B8038F5F8F732091B903B4
:10271000821741F0E091B803F0E0E156FC4F958F4D
:102720008093B803FF91EF919F918F912F910F901C
:102730000FBE0F901F9018958081F4CF1F920F92BB
:102740000FB60F9211242F933F938F939F93AF93C4
:10275000BF938091920190919301A0919401B091C7
:1027600095013091910123E0230F2D3758F5019603
:10277000A11DB11D2093910180939201909393012B
:10278000A0939401B0939501809196019091970147
:10279000A0919801B09199010196A11DB11D80935E
:1027A000960190939701A0939801B0939901BF91DE
:1027B000AF919F918F913F912F910F900FBE0F90EE
:1027C0001F90189526E8230F0296A11DB11DD2CFA8
:1027D000CF92DF92EF92FF920F931F93E82FF92F82
:1027E00005C0015011092109310961F19081962339
:1027F0009417B9F305C0015011092109310911F1EC
:10280000908196239413F7CFC12CD12CE12CF12C7D
:102810000AC08FEFC81AD80AE80AF80A0C151D0575
:102820002E053F0579F080818623841791F36C2D66
:102830007D2D8E2D9F2D1F910F91FF90EF90DF909A
:10284000CF90089560E070E080E090E01F910F91DC
:10285000FF90EF90DF90CF900895EFE9F3E01382BF
:10286000128288EE93E0A0E0B0E084839583A68393
:10287000B7832AE131E03183208325EC30E03587CE
:10288000248724EC30E03787268720EC30E0318B3A
:10289000208B21EC30E0338B228B22EC30E0358B27
:1028A000248B26EC30E0378B268B118E128E138E04
:1028B000148EECE3F4E020E520831182EEE3F4E0F3
:1028C000158216821186138642E050E060E070E0C7
:1028D000448755876687778713A215A614A62CE22E
:1028E00031E033A722A717A6E2EAF4E02AE431E0B8
:1028F00031832083158216821782108640E050E0D3
:1029000060E87FE34187528763877487E7E8F4E0F4
:102910001382128284839583A683B78388E391E030
:1029200091838083128E118E14860895CF93DF9346
:10293000CDB7DEB7C456D1090FB6F894DEBF0FBECF
:10294000CDBF789484B5826084BD84B5816084BD38
:1029500085B5826085BD85B5816085BD80916E003D
:10296000816080936E00109281008091810082606E
:1029700080938100809181008160809381008091AB
:1029800080008160809380008091B100846080939A
:10299000B1008091B00081608093B00080917A0096
:1029A000846080937A0080917A00826080937A00BC
:1029B00080917A00816080937A0080917A008068AB
:1029C00080937A001092C100E091AF03F091B003C0
:1029D00082E08083E091AB03F091AC031082E09140
:1029E000AD03F091AE0383E380831092B703E091CF
:1029F000B303F091B40386E08083E091B103F091DA
:102A0000B203808180618083E091B103F091B203D1
:102A1000808188608083E091B103F091B20380816E
:102A200080688083E091B103F091B20380818F7D53
:102A3000808361E087E00E94580260E086E00E94A7
:102A4000580280916D04882321F088E694E00E946A
:102A50005F0A1092490410924704109244041092A5
:102A600043048AE0809342040E94BB028B0161E030
:102A7000809142040E94580261E0809142040E94C9
:102A80002A02FFB6F89480919A01811127C0E4EBE5
:102A9000F0E08491E8ECF0E09491E82FF0E0EE0FA4
:102AA000FF1FEA56FF4FA591B491EC91E92321F461
:102AB00061E08AE00E942A0261E08AE00E945802F6
:102AC0008CB580618CBD8CB580648CBD61E08DE07F
:102AD0000E94580261E08BE00E94580280919A01A6
:102AE0008F5F80939A01FFBE82E580933C04109231
:102AF0003D0480913C0490913D040E94FD025AE007
:102B0000F52E8FEF0E94D802FA94F110FACF8EE3DF
:102B100094E00E94000320E030E0A90160E08EE331
:102B200094E00E941603F82E80934804EE24E39468
:102B30008E1599F00E94BB02601B710B613D7740BE
:102B400050F381E0809343048EE394E00E94CD0231
:102B50008FE591E00E946C0F7AC02AEA31E040E0F4
:102B600050E068E08EE394E00E94160382FF2AC0E2
:102B7000F092490480914904C12CD12CE12C30E41D
:102B8000F32E823019F0C12CD12C760120E030E0F8
:102B9000A90167E38EE394E00E941603A701960162
:102BA00069E28EE394E00E94160380934804882330
:102BB000D1F00E94BB02601B710B613D774030F386
:102BC00088E0C0CF44E0F42E0E94DF0280934804E6
:102BD000FA94F110F9CF8A3A11F082E0B3CF82E093
:102BE00080934904C7CF809149048230D1F420E01A
:102BF00030E0A9016AE38EE394E00E941603882383
:102C000011F086E09FCF0E94DF02807C803C19F4A7
:102C100083E0809349040E94DF020E94DF020E9449
:102C2000DF028EE394E00E94CD0280E580933C04B5
:102C300010923D0481E00E941C05882309F4D5C050
:102C400088E694E00E94D307882309F481CF82E0CC
:102C50008093A40483E08093A50461E082E00E9455
:102C6000580262E08091A5040E94580281E080939E
:102C7000A60480E090ECADE7B4E48093AB049093BD
:102C8000AC04A093AD04B093AE041AE0C12CD12CD7
:102C900076010E94480EC60ED71EE81EF91E0E943D
:102CA000B9021150B1F7C701B6012AE030E040E0A7
:102CB00050E00E94AA1ACA01B9010E9461190E943B
:102CC00029196093A7047093A8048093A904909392
:102CD000AA048FE993E00E9407010D9739F481E07F
:102CE00090919C01911180E080939C0180919C01C6
:102CF000813009F0A2C19CE2C92E91E0D92E20E3D7
:102D0000922E1EAE1DAEDCAECBAE21961FAE21972D
:102D100019A218A2DF8ECE8E1BA2812C312CFE01AF
:102D2000FB967F0108E614E0882D932DFC01EC5FF3
:102D3000FE4F20812F3209F40196DC01AC5FBE4FBB
:102D4000FE01E85AFF4F30E020E05F014D914F3225
:102D500049F0442339F001962F5F3F4F41932C30C7
:102D60003105A1F72A0D3B1DF9011082FC01EC5F32
:102D7000FE4F20812F3209F40196882E392E8C5F68
:102D80009E4FFC0120801C821B82DA82C9821E8237
:102D900021E0A501B801CE0101960E946D108823A3
:102DA00009F458C1CE0101960E945F0A211024C087
:102DB00024E00836120719F0C8010E945F0A8091CA
:102DC0000901893309F035C1909209018091080108
:102DD000893309F02AC19092080180910701893353
:102DE00009F01FC1109207018CCF80E00E941C05E2
:102DF000882309F4ADCE24CFF701858181113FC12D
:102E000021E0A501B801C7010E946D10B82EF4E0C1
:102E100008361F0709F427C1C8010E945F0AB110D4
:102E200028C1CE0101960E944E12CE0101960E9449
:102E3000940069E771E087E894E00E94110F8091A7
:102E4000A0049091A104009761F00E945F0A809114
:102E5000A0049091A1040E94851B1092A1041092DD
:102E6000A00480919C01813009F0E7C00E94BB0260
:102E70006B017C010E949402E4E6CE16D104E104C9
:102E8000F10408F4BFC06A3071058105910508F4AA
:102E90003BC010919B0161E0111160E060939B01C8
:102EA00087E00E942A02112379F1E4ECF0E06491BA
:102EB000E0EBF0E08491E82FF0E0EE0FFF1FE0562A
:102EC000FF4F8591949100E412E42FE030E0462F0B
:102ED0000E94E813611571058105910529F06F5F66
:102EE0007F4F8F4F9F4F9F700E945F1926E933E4F9
:102EF0004BE05DE30E94161A20E030E040E05FE323
:102F00000E94161A2B013C0115E0C12CD12C760130
:102F10000E94480EC60ED71EE81EF91E0E94B90276
:102F20001150B1F7C701B60125E030E040E050E0B4
:102F30000E94AA1A8091A7049091A804A091A904C4
:102F4000B091AA0479018A01E81AF90A0A0B1B0B4D
:102F5000C801B7010E9461192091AB043091AC0403
:102F60004091AD045091AE040E94B7186B017C01F2
:102F70008EE791E00E946C0F22E0B301A2018FE97D
:102F800093E00E947F0F83E891E00E946C0F22E0A3
:102F9000B701A6018FE993E00E947F0FCE01019651
:102FA0000E944E12CE0101960E94940022E0B301CD
:102FB000A20187E894E00E947F0F68E871E087E84B
:102FC00094E00E94110F22E0B701A60187E894E087
:102FD0000E947F0F6FE471E087E894E00E94110F78
:102FE0008091A0049091A104009761F00E945F0A73
:102FF0008091A0049091A1040E94851B1092A104CD
:103000001092A0048FE993E00E9407010D9709F048
:1030100028CF81E090919C01911180E080939C01E8
:1030200020CF8F5F809307016CCE8F5F8093080164
:1030300068CE8F5F8093090164CE80E090E0892B99
:1030400009F447CE0E943501882309F442CE0E943C
:1030500000003FCE24E00836120709F4E2CEC80192
:103060000E945F0ADECE882309F4DBCE8E01025E69
:103070001F4F902F812F8701E92EF82E55CE84E027
:103080000836180709F4CDCEEACF5058BB27AA2737
:103090000E945D180C94D7190E94C91938F00E943B
:1030A000D01920F039F49F3F19F426F40C94C61976
:1030B0000EF4E095E7FB0C94C019E92F0E94E81983
:1030C00058F3BA17620773078407950720F079F45D
:1030D000A6F50C940A1A0EF4E0950B2EBA2FA02D2B
:1030E0000B01B90190010C01CA01A0011124FF27B5
:1030F000591B99F0593F50F4503E68F11A16F040B0
:10310000A22F232F342F4427585FF3CF46953795AE
:103110002795A795F0405395C9F77EF41F16BA0B73
:10312000620B730B840BBAF09150A1F0FF0FBB1F21
:10313000661F771F881FC2F70EC0BA0F621F731F6A
:10314000841F48F4879577956795B795F7959E3FC7
:1031500008F0B0CF9395880F08F09927EE0F979558
:10316000879508950E949C1908F481E008950E94B3
:10317000CB180C94D7190E94D01958F00E94C91985
:1031800040F029F45F3F29F00C94C01951110C94C0
:103190000B1A0C94C6190E94E81968F39923B1F32D
:1031A000552391F3951B550BBB27AA27621773076D
:1031B000840738F09F5F5F4F220F331F441FAA1F01
:1031C000A9F335D00E2E3AF0E0E832D091505040BD
:1031D000E695001CCAF72BD0FE2F29D0660F771F6B
:1031E000881FBB1F261737074807AB07B0E809F051
:1031F000BB0B802DBF01FF2793585F4F3AF09E3FD6
:10320000510578F00C94C0190C940B1A5F3FE4F34D
:10321000983ED4F3869577956795B795F7959F5F18
:10322000C9F7880F911D9695879597F90895E1E064
:10323000660F771F881FBB1F621773078407BA07C3
:1032400020F0621B730B840BBA0BEE1F88F7E0951E
:1032500008950E9430196894B1110C940B1A0895C6
:103260000E94F01988F09F5798F0B92F9927B7510D
:10327000B0F0E1F0660F771F881F991F1AF0BA951A
:10328000C9F714C0B13091F00E940A1AB1E0089554
:103290000C940A1A672F782F8827B85F39F0B93F46
:1032A000CCF3869577956795B395D9F73EF49095CD
:1032B0008095709561957F4F8F4F9F4F0895E8944B
:1032C00009C097FB3EF490958095709561957F4F6E
:1032D0008F4F9F4F9923A9F0F92F96E9BB2793951C
:1032E000F695879577956795B795F111F8CFFAF42C
:1032F000BB0F11F460FF1BC06F5F7F4F8F4F9F4F5D
:1033000016C0882311F096E911C0772321F09EE8BA
:10331000872F762F05C0662371F096E8862F70E020
:1033200060E02AF09A95660F771F881FDAF7880FFA
:103330009695879597F90895990F0008550FAA0B50
:10334000E0E8FEEF16161706E807F907C0F01216B8
:103350001306E407F50798F0621B730B840B950BBB
:1033600039F40A2661F0232B242B252B21F4089510
:103370000A2609F4A140A6958FEF811D811D0895AD
:1033800097F99F6780E870E060E008959FEF80EC18
:10339000089500240A9416161706180609060895BB
:1033A00000240A9412161306140605060895092E21
:1033B0000394000C11F4882352F0BB0F40F4BF2B90
:1033C00011F460FF04C06F5F7F4F8F4F9F4F0895D0
:1033D00057FD9058440F551F59F05F3F71F04795C6
:1033E000880F97FB991F61F09F3F79F087950895AB
:1033F000121613061406551FF2CF4695F1DF08C0CA
:10340000161617061806991FF1CF869571056105E6
:1034100008940895E894BB2766277727CB0197F98E
:1034200008950E949C1908F48FEF08950E94291AAC
:103430000C94D7190E94C91938F00E94D01920F0B5
:10344000952311F00C94C0190C94C61911240C94F6
:103450000B1A0E94E81970F3959FC1F3950F50E085
:10346000551F629FF001729FBB27F00DB11D639F36
:10347000AA27F00DB11DAA1F649F6627B00DA11DDC
:10348000661F829F2227B00DA11D621F739FB00D82
:10349000A11D621F839FA00D611D221F749F3327F2
:1034A000A00D611D231F849F600D211D822F762F8B
:1034B0006A2F11249F5750409AF0F1F088234AF068
:1034C000EE0FFF1FBB1F661F771F881F91505040D4
:1034D000A9F79E3F510580F00C94C0190C940B1A6B
:1034E0005F3FE4F3983ED4F3869577956795B7955B
:1034F000F795E7959F5FC1F7FE2B880F911D969575
:10350000879597F908950E949C19880B990B089547
:10351000A1E21A2EAA1BBB1BFD010DC0AA1FBB1FD7
:10352000EE1FFF1FA217B307E407F50720F0A21B49
:10353000B30BE40BF50B661F771F881F991F1A94B6
:1035400069F760957095809590959B01AC01BD01E0
:10355000CF010895052E97FB1EF400940E94C11A16
:1035600057FD07D00E94881A07FC03D04EF40C9434
:10357000C11A50954095309521953F4F4F4F5F4F61
:10358000089590958095709561957F4F8F4F9F4FCF
:1035900008950E94DA1AA59F900DB49F900DA49FE4
:1035A000800D911D11240895EE0FFF1F0590F491D9
:1035B000E02D0994A29FB001B39FC001A39F700D9D
:1035C000811D1124911DB29F700D811D1124911D2B
:1035D00008950F931F93CF93DF938230910510F4DA
:1035E00082E090E0E091B104F091B20430E020E09C
:1035F000B0E0A0E0309799F42115310509F44AC0F4
:10360000281B390B24303105D8F58A819B8161153F
:10361000710589F1FB0193838283FE0111C0408112
:1036200051810281138148175907E0F04817590763
:1036300099F4109761F012960C93129713961C93BD
:103640003296CF01DF91CF911F910F910895009392
:10365000B1041093B204F4CF2115310551F0421793
:10366000530738F0A901DB019A01BD01DF01F80120
:10367000C1CFEF01F9CF9093B2048093B104CDCFC5
:10368000FE01E20FF31F8193919322503109398398
:103690002883D7CF2091AF043091B004232B41F47D
:1036A00020911201309113013093B0042093AF04A4
:1036B00020911001309111012115310541F42DB7F0
:1036C0003EB74091140150911501241B350BE09138
:1036D000AF04F091B004E217F307A0F42E1B3F0BE8
:1036E0002817390778F0AC014E5F5F4F2417350774
:1036F00048F04E0F5F1F5093B0044093AF04819386
:1037000091939FCFF0E0E0E09CCFCF93DF930097C1
:10371000E9F0FC01329713821282A091B104B091BA
:10372000B204ED0130E020E01097A1F42081318156
:10373000820F931F2091AF043091B00428173907EE
:1037400009F061C0F093B004E093AF04DF91CF9132
:103750000895EA01CE17DF07E8F54A815B819E01F3
:1037600041155105B1F7E901FB83EA83499159916C
:10377000C40FD51FEC17FD0761F48081918102967B
:10378000840F951FE90199838883828193819B83AC
:103790008A83F0E0E0E012968D919C911397009758
:1037A000B9F52D913C911197CD010296820F931F8F
:1037B0002091AF043091B0042817390739F63097BB
:1037C00051F51092B2041092B104B093B004A093DA
:1037D000AF04BCCFD383C28340815181840F951F36
:1037E000C817D90761F44E5F5F4F88819981480FF0
:1037F000591F518340838A819B8193838283211542
:10380000310509F0B0CFF093B204E093B1049ECF3C
:10381000FD01DC01C0CF13821282D7CFFB01DC0196
:1038200004C08D910190801921F441505040C8F797
:10383000881B990B0895FC018191861721F088233C
:10384000D9F7992708953197CF010895FB01DC013D
:103850004150504048F001900D920020C9F701C03E
:0E3860001D9241505040E0F70895F894FFCFBC
:10386E00FFFFFFFF57585F3030302E637376000036
:10387E000000B3048000000000006B01CB00F800D4
:10388E00B801290107011B0100000000070CCB0045
:10389E00010A680C00000000BF0CA20C920C690C0F
:1038AE00720CF50DFF0D00000000230E0F0F0D0A18
:1038BE00006E616E00696E66006F7666002F0053B3
:1038CE004420696E697469616C697A6174696F6E9E
:1038DE00206661696C65642100642C460A007320C1
:0A38EE003D20006D203D20002C005D
:00000001FF
